:100000000428FF3FFF3FFF3FDF30031383168500C7
:10001000AF30860087018B010F30031783129E00DB
:100020009F0107300313C60058260C30DB008722DF
:100030000130DB008722D123C601BE257008AB004A
:100040007108AC000130C600BE2571082C02031DEA
:100050002B2870082B02031C392885120230D1008E
:100060001430D2004630C400C5014430D3004E25C0
:10007000442885160230D1001430D2004130C4002B
:10008000C5014430D3004E251A30FB00FF30FA0082
:10009000FB0B4B284E28FA0B4B284828E730FA0078
:1000A000FA0B502800000230C600BE2571082C0251
:1000B000031D5C2870082B02031C6A2806120330FB
:1000C000D1001430D2004630C400C5014430D30002
:1000D0004E25752806160330D1001430D200413069
:1000E000C400C5014430D3004E251A30FB00FF3058
:1000F000FA00FB0B7C287F28FA0B7C287928E73054
:10010000FA00FA0B812800000330C600BE257108F2
:100110002C02031D8D2870082B02031C9B2806133C
:100120000430D1001430D2004630C400C501443040
:10013000D3004E25A62806170430D1001430D20073
:100140004130C400C5014430D3004E251A30FB00B5
:10015000FF30FA00FB0BAD28B028FA0BAD28AA2817
:10016000E730FA00FA0BB22800002B08F0002C0848
:10017000F10024268930F4002530F5001630F60011
:100180007C30F70036247008AD007108AE007208AC
:10019000AF007308B0000130C600BE25422689308A
:1001A000F4002530F5001630F6007C30F7003624D8
:1001B0007008B1007108B2007208B3007308B4008F
:1001C0000230C600BE2542268930F4002530F500F5
:1001D0001630F6007C30F70036247008B500710840
:1001E000B6007208B7007308B8000330C600BE2519
:1001F00042268930F4002530F5001630F6007C30B8
:10020000F70036247008B9007108BA007208BB0004
:100210007308BC002D08F0002E08F1002F08F20032
:100220003008F30097247008C6007108C7003D30FD
:10023000C8002E230130D1000C30D2003D30D30055
:100240004E253108F0003208F1003308F20034087E
:10025000F30097247008C6007108C7003D30C8003D
:100260002E230230D1000730D2003D30D3004E257E
:100270003508F0003608F1003708F2003808F300BE
:1002800097247008C6007108C7003D30C8002E23AF
:100290000330D1000730D2003D30D3004E2539085D
:1002A000F0003A08F1003B08F2003C08F300972404
:1002B0007008C6007108C7003D30C8002E23043006
:1002C000D1000730D2003D30D3004E251C286729CD
:1002D0006D266D266D265208F0000130F40070087E
:1002E00003197629F40D7410FF3F70297408A400D7
:1002F0005308F0000130F300700803198329F30D4F
:100300007310FF3F7D297308A5005408F0000130E9
:10031000F200700803199029F20D7210FF3F8A292C
:100320007208A6005508F0000130F10070080319AA
:100330009D29F10D7110FF3F97297108A7005708FB
:10034000F0000130A20070080319AA29A20D2210A2
:10035000FF3FA4295808F0000130A90070080319D4
:10036000B529A90D2910FF3FAF295908F000013028
:10037000A10070080319C029A10D2110FF3FBA295F
:100380005108A3005608A0005108840073087404A3
:10039000F0007208F0047108F004F009700880059C
:1003A000841725082404F0002608F0042708F00428
:1003B000F0097008800584132008840029082204AD
:1003C000F0002108F004F00970088005841729085E
:1003D0002204F0002108F004F0097008800584135D
:1003E0002308840026080004F00027087004800019
:1003F00020088400210880042109F000700880058D
:100400006D26210880042109F000700880056D2602
:10041000210880042109F000700880056D2623085A
:100420008400260880042709F00070088005200851
:100430008400210880042109F000700880056D26E1
:10044000210880042109F100710880052308840037
:100450002609F00070088005240880042008840024
:1004600021088004710880056D2623088400240972
:10047000F000700880052708800420088400210807
:1004800080042109F10071088005230884002709F0
:10049000F00070088005200884002108800471089D
:1004A00080056D26210880042109F0007008800570
:1004B0002308840027088004200884002108800481
:1004C000700880056D26230884002709F000700855
:1004D000800520088400210880042109F1007108AA
:1004E00080052308840027080004F0002608F00493
:1004F0002508F004240870048000200884002108E6
:100500008004710880056D260130A80008000313DF
:100510008312200884002109F00070088005220958
:10052000F000700880052308840025082404F000EA
:100530002608F0042708F004F00970088005003050
:10054000DB1B0130F1007108013A031DA92A2408C0
:10055000800400305B1B0130F1007108013A031D7B
:10056000B32A250880040030DB1A0130F10071083D
:10057000013A031DBD2A2608800400305B1A0130B1
:10058000F1007108013A031DC72A270880042008DA
:1005900084002808013A031DD22A2209F0007008BD
:1005A0008005D42A2208800421088004D02621094D
:1005B000F000700880052209F0007008800523080B
:1005C000840025082404F0002608F0042708F0041D
:1005D000F009700880050030DB190130F100710866
:1005E000013A031DF52A2408800400305B1901300C
:1005F000F1007108013A031DFF2A2508800400302C
:10060000DB180130F1007108013A031D092B26089F
:10061000800401305B05F1007108013A031D122BC3
:1006200027088004200884002808013A031D1D2B98
:100630002209F000700880051F2B22088004210881
:100640008004D0262109F000700880052808013AAE
:10065000031D2C2B6D262D2BBB26080003138312A4
:100660004708803A031D362B00304606031D4E2BEB
:10067000480884002D308000840A33308000840ACA
:1006800032308000840A37308000840A363080009F
:10069000840A38308000840A8001D02BCA0180305F
:1006A0004706F00080307002031D582B00304602D0
:1006B0000318642BFF30CA004608003CC6004708F8
:1006C000031C013FC701C7020130C9008030F000A0
:1006D000803047067002031D6F2B4608093C031843
:1006E000722BC90A8030F000803047067002031D6B
:1006F0007B2B4608633C03187E2BC90A8030033AE3
:10070000F000803047067002031D882B4608E73C46
:1007100003188B2BC90A8030273AF0008030470637
:100720007002031D952B46080F3C0318982BC90A2D
:100730004808840020308000840A8000840A8000F9
:10074000840A8000840A8000840A8000840A800170
:1007500084034908003C0318CB2B0A30F400F50150
:100760004608F0004708F100F4247808F000790802
:10077000F10030307007800084030A30F400F50186
:100780004608F0004708F100F4247008C60071081C
:10079000C700C903A92B4A080319D02B2D308000AC
:1007A0000800013003138312D1000130D2006F30F2
:1007B000C6004330C7002030C8005430C900613043
:1007C000CA006E30CB007130CC007530CD00653082
:1007D000CE003A30CF00D0014630D3004E25013054
:1007E000D1001430D2005330C600C7014630D300C8
:1007F0004E250230D1000130D2006F30C6004330A8
:10080000C7002030C8005630C9003130CA003A3025
:10081000CB00CC014630D3004E250330D10001304F
:10082000D2006F30C6004330C7002030C8005630B9
:10083000C9003230CA003A30CB00CC014630D30078
:100840004E250430D1000130D2006F30C600433055
:10085000C7002030C8005630C9003330CA003A30D3
:10086000CB00CC014630D3004E2508000313831281
:10087000FB017308031D770803198D2C7208760697
:10088000FA007708F3077E30031C4A2CF3020318A2
:10089000902C4D2CF302031C932C7208F800710865
:1008A000FC007008FD00F817F6170310F201F101C3
:1008B000F0011830AA007D1C672C7408F007750839
:1008C0000318750FF10776080318760FF207F20C7C
:1008D000F10CF00CF80CFC0CFD0C0310AA0B5B2CBB
:1008E000F21B772CF80DF00DF10DF20DF3037B1BCD
:1008F000701C892CF81F892CF00A0319F10A0319BE
:10090000F20A031D892CF20CF10CF00CF30A031906
:10091000902CFA1FF2130030952C0130B226952C42
:1009200002308D26952C04309B260000080003130E
:100930008312FB0173080319D42C7208FA00F21712
:100940008E30F302F31FD72CF309F30A0830730239
:10095000031CBA2CF300F10D7208F100F20108300B
:100960007302031CBA2CF300F10DF1017308031D8F
:100970000310C22C73080319C22C0310F20CF10CE3
:10098000F30BBD2C7B1B711CCC2C031CCC2CF10A53
:100990000319F20AF21BE32CFA1FE62CF209F10903
:1009A000F10A0319F20AE62CF201F101E62C7B149C
:1009B000FB1FE92CF201FA1FE92CFF30F200F100D5
:1009C000FA0DF20CE92C0130FC00EB2C0030FC009D
:1009D000EB2CFF30FC00FC080319EF2C7E2671087D
:1009E000F0007208F100080003138312FD01F90101
:1009F000F801710870040319003471087506FA00D3
:100A0000FA1BFD09FB01F51F0A2DF409F509F40A8B
:100A10000319F50AF11F112DF009F109F00A031964
:100A2000F10A71087504FA00FA1B262DF7257B18C8
:100A3000392DFD1F0034F009F109F00A0319F10AFC
:100A4000F809F909F80A0319F90A0034F51F352DD8
:100A5000F11B312D7108F9007008F800F101F00167
:100A6000192DF101F001F00A0034F109F009FB0A37
:100A7000162DF80A0319F90A74087802031D192DB6
:100A800075087902031D192DF901F801F00A0319FF
:100A9000F10AF11F192D0000FF340800031383121F
:100AA0005108013A031D572D8030D1006E2D510899
:100AB000023A031D5E2DC030D1006E2D5108033A5D
:100AC000031D652D9430D1006E2D5108043A031D8D
:100AD0006C2DD430D1006E2D8030D1005203F00047
:100AE0005108F0077008D1007008DB008722A801C8
:100AF000D4015408530784000008F2007208003A39
:100B000003198A2D5408530784000008DA00A92627
:100B1000D40A792D0130A800080003138312AA011A
:100B20007208031DA42D7108F2007008F100F00195
:100B3000AA157208031DA42D7108F200F101AA1173
:100B40002A1672080319B22D2A08F302031D031C8A
:100B5000B62D0310F21BBA2DF00DF10DF20DF30BB3
:100B6000AA2DB62D0130FC00B226BD2D0230FC00AE
:100B70009B26BD2D0430FC00CA260800403003131C
:100B800083129F05F03083169F0483129F17460837
:100B9000F000F00D7010F00D701070089F041F141D
:100BA000C3269F141F08F2000030F2180130F20033
:100BB0007208013A031DDE2D0000D22D1E08F2003E
:100BC000F3017208F300F2017208C7007308C8004D
:100BD00083161E0872048312C7007308C800003011
:100BE000C8041F104708F0004808F100080003136C
:100BF0008312710DF80DF90D7408F8027508031CC5
:100C0000750FF902F00DF10D0F30FC00710DF80DAC
:100C1000F90D7408701C122EF8027508031C750F6C
:100C2000F902172EF80775080318750FF907F00D6C
:100C3000F10DFC0B062E7018232E7408F8077508AA
:100C40000318750FF9070800031383127008F800E2
:100C50007108F000F101F201F301FB01FC01963093
:100C6000F300FA01F01F3A2EF809F009F80A031907
:100C7000F00AFA177008F1007808F000F801F201A4
:100C80008D250800031383127008F8007108F00026
:100C9000F101F201F301FB01FC019630F300FA01CE
:100CA0007008F1007808F000F801F2018D250800C5
:100CB000031383124608D1000730D2000630D30058
:100CC0000530D4000430D5004608D6000230D700E5
:100CD000D8010330D90068210800083003138312BB
:100CE000FB00FF30FA00FB0B762E792EFA0B762EE6
:100CF000732E1E30FA00FA0B7B2E080003138312AA
:100D00007B14FB1F8B2EF201FA1FFF30F200F10063
:100D1000F000FA0DF20CFF30080003138312FB14ED
:100D2000FB1F992EFF30F300F200F100F000FA0DE6
:100D3000F20CFF300800031383127B15FB1FA72E54
:100D40000130F300F201F101F001FA0DF20CFF3075
:100D5000080003138312A8015A08DB008722013020
:100D6000A800080003138312F201F101F001F80159
:100D7000F30100300800103003138312FA00FA0B5D
:100D8000BF2E00000800073003138312FA00FA0B8D
:100D9000C72E080003138312FA1FF2130030080055
:100DA00000000800FF3FFF3FFF3FFF3FFF3FFF3FC7
:02400E00C430BC
:00000001FF
